:020000040000FA
:020000000C28CA
:040002000034003492
:08000800FE000308F8000408E3
:10001000F9000A08FA001229AD2A172200307A22C4
:10002000A32083120313D301D30A530B362885016F
:100030003F30831685003030950097008312851875
:100040002928A320053083120313A000A101D72281
:100050001E289001073083169600F8308B000000B0
:10006000630000000000831203135310D31C9C286C
:10007000051D7A2803304C02E83003194B0203189F
:10008000542800304C021430031853199C2853157F
:10009000D31D9C289330D0005030D1006630D20060
:1000A0000F30D500D3179C2807304C02D1300319EC
:1000B0004B02031C9C28D030CB000730CC00D31B54
:1000C0009C282830CF0A4F0203186A289330D000AA
:1000D000603073284F08283A0319D40A2930CF001A
:1000E0009330D000C030D1006630D200D317D50194
:1000F000D50A9C28531D8F2853115312CB01CC01D4
:10010000D40ACF01D31D8628D3119C2803304C027A
:10011000E83003194B0203189C28D3159C280330A0
:100120004C02E83003194B02031C9C28D310D31156
:100130005312CB01CC01CF01D31F15287621831296
:10014000D313531415288312B60128308400563077
:10015000A4000408A5000E30A6002408831300089C
:10016000A700A40A2508840027088000A50AA60B7A
:10017000A828B8013808403E8400831300080C21E9
:100180000310380D283E840024088004840A3808AF
:10019000403E840000080623003A03100319D828C3
:1001A000380D283E840001308004840AB60A03100A
:1001B000380D283E84000008A000840A0008A10031
:1001C0004C228312B80A06303802031CBA284108B0
:1001D0004006B7004208B7064308B7064408B7060A
:1001E0004508B706FF30B70637080C212408B404C9
:1001F0002508B504361C34143508A1003508A000C4
:100200004C220000000083120313A0012030A10043
:100210004C22000000000800A400A5010310A40D5A
:10022000A50D080083120313050885000B08FB00C9
:10023000F8308B057B1D2C29D31C2129CB0A0319EF
:10024000CC0AD31E2C29AC30F20A7202031C2C29D2
:10025000F2019001D3125314FB18D3147B1C6D29A7
:100260008518342953146D29051C4329D31A3D29B7
:10027000D316F401F301F001F2018E018F01101485
:10028000F101F10A6D29710B6D2906300F02003062
:1002900003184F29F30AF1010310F40D5829023015
:1002A0000F02031C5829F30AF1010310F40D741412
:1002B00008307302031C6D297008463E84007408E0
:1002C00083138000F00A05307002031C6C29D521CD
:1002D000D31F6B29F201F001F3017A088A00790833
:1002E000840078088300FE0E7E0E0900C430B6003C
:1002F000540EF039B7004D080F39B7044E08B80056
:100300007508B9005008BA005108BB005208BC007B
:10031000BD01BF01BF0A3F08363E840083130008B9
:10032000BD07BF0A07303F02031C8B29BF013F08EE
:10033000363E84000008BC2203103F0D263E840098
:1003400020088000840A08303F02031C97290030EF
:100350007A2201307A228B0183125508BF00BF0830
:100360000319D1290630BE00AA30A000A100EE2258
:10037000BE0BB429BE0103103E0D263E840083133C
:100380000008A000840A0008A100EE22BE0A08307E
:100390003E02031CBC29A001A00AA101D722BF0371
:1003A000AF29F8308B0002307A2A4608F600470859
:1003B0008039F6070230F7007708463E84000008CF
:1003C000F607F70A05307702031CDC29F613470805
:1003D0007F397606031D08004808F039C03A031D2E
:1003E000F72949087506031DF729C030F7004808AA
:1003F0000F390C3A031D022A4A087506031D022A0A
:10040000C030F7007708C03A0319C61F0800461F1E
:100410000B2A55300C2A5030D1009330D000553083
:10042000D200D317D40A0A30D5008B0108007130EE
:1004300083168F000F1D1A2A8B014130810007306F
:100440008312990083169401831285013F3083162D
:1004500085003030950097009601023083128700A6
:100460000C308316870032308312A000A101D722FE
:1004700016301E238312CE0014301E23F500A03048
:100480008312C0003B30C1002030C2001030C300D6
:10049000C4018030C500080083160711031107113D
:1004A0008316871083128710831687118312871192
:1004B000A201A11F5D2A87155E2A87110000000096
:1004C0000000831203130715000000000000000065
:1004D0008312031307110310A00DA10DA20A1030FF
:1004E0002202031C592A8316871583128714831648
:1004F000071508008312A000912ACE3087058316C5
:100500008705080087160712071007168E018F014E
:100510001014080087120712071090018E018F0136
:1005200008002008003A03197C2A013A0319822A9C
:10053000033A031D08008A2A70308400763016239F
:1005400083134030840056301623D601E030D700A4
:10055000D801E230D900DA01E430DB00DC01E6301A
:10056000DD00DE01E830DF00E001EA30E100E20119
:10057000EC30E30083010D28A200A301A401A50132
:100580000310A30DA40D0310A30DA40DA21FCA2ACE
:100590002314CB2AA3140310A20DA50A08302502A8
:1005A000031CC42A2408A1002308A000080001306D
:1005B000A0020030031CA103A102200A0319210A92
:1005C00003190800E230A2000130A3000130A202AA
:1005D000031CA303220A0319D72AE62A1030A2001B
:1005E00001300F02983003190E02031C022B8E01FA
:1005F0008F01A11FFD2A0714FE2A07100310A00D6A
:10060000A10DA203A20803190800F02AA000A2006D
:10061000A101A301A21BA10A0310A20DA30A083085
:100620002302031C0A2B211C0134003464008001C6
:10063000840A0406031900340406172BA00083164D
:080640009B001C141A080800BD
:00000001FF
